{
  "transactions": [
    {
      "hash": "0x70dd0cdb9980934cf35e10a720cabe9366dd00c414d2357546272b1d2bd43d5d",
      "transactionType": "CALL",
      "contractName": null,
      "contractAddress": "0x2ccaffaef006b54e52698adc016ade025d192750",
      "function": "applyChainUpdates((uint64,bool,bytes,bytes,(bool,uint128,uint128),(bool,uint128,uint128))[])",
      "arguments": [
        "[(6898391096552792247, true, 0x000000000000000000000000589f119660a33c17f0bee1e158b6533c69e33490, 0x000000000000000000000000c6f2cd9dd83cb2e893e6371d37e8b68a96280bec, (false, 0, 0), (false, 0, 0))]"
      ],
      "transaction": {
        "from": "0x305bda6fd153d82b812d986b28dcb07d06a3a639",
        "to": "0x2ccaffaef006b54e52698adc016ade025d192750",
        "gas": "0x50f86",
        "value": "0x0",
        "input": "0xdb6327dc0000000000000000000000000000000000000000000000000000000000000020000000000000000000000000000000000000000000000000000000000000000100000000000000000000000000000000000000000000000000000000000000200000000000000000000000000000000000000000000000005fbc02272fbf20b70000000000000000000000000000000000000000000000000000000000000001000000000000000000000000000000000000000000000000000000000000014000000000000000000000000000000000000000000000000000000000000001800000000000000000000000000000000000000000000000000000000000000000000000000000000000000000000000000000000000000000000000000000000000000000000000000000000000000000000000000000000000000000000000000000000000000000000000000000000000000000000000000000000000000000000000000000000000000000000000000000000000000000000000000000000000000000000000000000000000000000000000000000000000000000000000000000000000000000000000000000000000000000000000000000000000000020000000000000000000000000589f119660a33c17f0bee1e158b6533c69e334900000000000000000000000000000000000000000000000000000000000000020000000000000000000000000c6f2cd9dd83cb2e893e6371d37e8b68a96280bec",
        "nonce": "0x50",
        "chainId": "0xaa36a7"
      },
      "additionalContracts": [],
      "isFixedGasLimit": false
    }
  ],
  "receipts": [
    {
      "status": "0x1",
      "cumulativeGasUsed": "0x6d3a83",
      "logs": [
        {
          "address": "0x2ccaffaef006b54e52698adc016ade025d192750",
          "topics": [
            "0x8d340f17e19058004c20453540862a9c62778504476f6756755cb33bcd6c38c2"
          ],
          "data": "0x0000000000000000000000000000000000000000000000005fbc02272fbf20b700000000000000000000000000000000000000000000000000000000000001000000000000000000000000000000000000000000000000000000000000000000000000000000000000000000000000000000000000000000000000000000000000000000000000000000000000000000000000000000000000000000000000000000000000000000000000000000000000000000000000000000000000000000000000000000000000000000000000000000000000000000000000000000000000000000000000000000000000000000000000000000000000000000000000000000000000000000000000000000000000000000000000000000000000000020000000000000000000000000c6f2cd9dd83cb2e893e6371d37e8b68a96280bec",
          "blockHash": "0x98ade96e56023988f7bd7b03ce453bddb42bf3e588126c23635ff0d5bc24742d",
          "blockNumber": "0x76453a",
          "transactionHash": "0x70dd0cdb9980934cf35e10a720cabe9366dd00c414d2357546272b1d2bd43d5d",
          "transactionIndex": "0x62",
          "logIndex": "0x77",
          "removed": false
        }
      ],
      "logsBloom": "0x00020000000000400000000000000000000000000000000000000000000000000000000000000000000000000000000000000000000000000004000000000000000000000000000000008000000000000000010000000000000000000000000000000000000000000000000000000000000000000000000000000000000000000000000000000000000000000000000000000000000000000000000000000000000000000000000000000000000000000000000000000000000000000000000000000000000000000000000000000000000000000000000000000000000000000000000000000000000000000000000000000000000000000100000000000000",
      "type": "0x2",
      "transactionHash": "0x70dd0cdb9980934cf35e10a720cabe9366dd00c414d2357546272b1d2bd43d5d",
      "transactionIndex": "0x62",
      "blockHash": "0x98ade96e56023988f7bd7b03ce453bddb42bf3e588126c23635ff0d5bc24742d",
      "blockNumber": "0x76453a",
      "gasUsed": "0x3a9f0",
      "effectiveGasPrice": "0x4609a9f2",
      "from": "0x305bda6fd153d82b812d986b28dcb07d06a3a639",
      "to": "0x2ccaffaef006b54e52698adc016ade025d192750",
      "contractAddress": null
    }
  ],
  "libraries": [],
  "pending": [],
  "returns": {},
  "timestamp": 1740094237,
  "chain": 11155111,
  "commit": "6d9d450"
}