{
  "transactions": [
    {
      "hash": "0xaa1dc278380765680368e0ffd678d3a1671344dcd5be66a1a4c35d426a900a77",
      "transactionType": "CALL",
      "contractName": null,
      "contractAddress": "0xe798e5f66b4bc465a99d52b7c88b02207a795d9c",
      "function": "applyChainUpdates((uint64,bool,bytes,bytes,(bool,uint128,uint128),(bool,uint128,uint128))[])",
      "arguments": [
        "[(6898391096552792247, true, 0x000000000000000000000000f81462153cc711c9976d107d763656f782249efc, 0x000000000000000000000000b134cfc7d5dc6f3d288ae04a0644c063fd0ee8db, (false, 0, 0), (false, 0, 0))]"
      ],
      "transaction": {
        "from": "0x305bda6fd153d82b812d986b28dcb07d06a3a639",
        "to": "0xe798e5f66b4bc465a99d52b7c88b02207a795d9c",
        "gas": "0x50f86",
        "value": "0x0",
        "input": "0xdb6327dc0000000000000000000000000000000000000000000000000000000000000020000000000000000000000000000000000000000000000000000000000000000100000000000000000000000000000000000000000000000000000000000000200000000000000000000000000000000000000000000000005fbc02272fbf20b70000000000000000000000000000000000000000000000000000000000000001000000000000000000000000000000000000000000000000000000000000014000000000000000000000000000000000000000000000000000000000000001800000000000000000000000000000000000000000000000000000000000000000000000000000000000000000000000000000000000000000000000000000000000000000000000000000000000000000000000000000000000000000000000000000000000000000000000000000000000000000000000000000000000000000000000000000000000000000000000000000000000000000000000000000000000000000000000000000000000000000000000000000000000000000000000000000000000000000000000000000000000000000000000000000000000000020000000000000000000000000f81462153cc711c9976d107d763656f782249efc0000000000000000000000000000000000000000000000000000000000000020000000000000000000000000b134cfc7d5dc6f3d288ae04a0644c063fd0ee8db",
        "nonce": "0x1d",
        "chainId": "0xaa36a7"
      },
      "additionalContracts": [],
      "isFixedGasLimit": false
    }
  ],
  "receipts": [
    {
      "status": "0x1",
      "cumulativeGasUsed": "0x1223b05",
      "logs": [
        {
          "address": "0xe798e5f66b4bc465a99d52b7c88b02207a795d9c",
          "topics": [
            "0x8d340f17e19058004c20453540862a9c62778504476f6756755cb33bcd6c38c2"
          ],
          "data": "0x0000000000000000000000000000000000000000000000005fbc02272fbf20b700000000000000000000000000000000000000000000000000000000000001000000000000000000000000000000000000000000000000000000000000000000000000000000000000000000000000000000000000000000000000000000000000000000000000000000000000000000000000000000000000000000000000000000000000000000000000000000000000000000000000000000000000000000000000000000000000000000000000000000000000000000000000000000000000000000000000000000000000000000000000000000000000000000000000000000000000000000000000000000000000000000000000000000000000000020000000000000000000000000b134cfc7d5dc6f3d288ae04a0644c063fd0ee8db",
          "blockHash": "0x72a2ae94886c7f5dcf21b38734a0bba76cf77b2ff032896d08f072c7a3f96042",
          "blockNumber": "0x763f4d",
          "transactionHash": "0xaa1dc278380765680368e0ffd678d3a1671344dcd5be66a1a4c35d426a900a77",
          "transactionIndex": "0x11f",
          "logIndex": "0x95",
          "removed": false
        }
      ],
      "logsBloom": "0x00000000000000400000000000000000000000000000100000000000000000000000000000000000000000000000000000000000000000004004000000000000000000000000000000000000000000000000000000000000000000000000000000000000000000000000000000000000000000000000000000000000000000000000000000000000000000000000000000000000000000000000000000000000000000000000000000000000000000000000000000000000000000000000000000000000000000001000000000000000000000000000000000000000000000000000000000000000000000000000000000000000000000000100000000000000",
      "type": "0x2",
      "transactionHash": "0xaa1dc278380765680368e0ffd678d3a1671344dcd5be66a1a4c35d426a900a77",
      "transactionIndex": "0x11f",
      "blockHash": "0x72a2ae94886c7f5dcf21b38734a0bba76cf77b2ff032896d08f072c7a3f96042",
      "blockNumber": "0x763f4d",
      "gasUsed": "0x3a9f0",
      "effectiveGasPrice": "0x4ebd080b",
      "from": "0x305bda6fd153d82b812d986b28dcb07d06a3a639",
      "to": "0xe798e5f66b4bc465a99d52b7c88b02207a795d9c",
      "contractAddress": null
    }
  ],
  "libraries": [],
  "pending": [],
  "returns": {},
  "timestamp": 1740075542,
  "chain": 11155111,
  "commit": "6d9d450"
}