{
  "transactions": [
    {
      "hash": "0xa5c4a6fc4488d89bcd16927a19fbbc9ffbf5e62e00de1288efd41ce821642c40",
      "transactionType": "CALL",
      "contractName": null,
      "contractAddress": "0x4be8887d15ab64804d9c6e2f15139873a3c5ddc5",
      "function": "applyChainUpdates((uint64,bool,bytes,bytes,(bool,uint128,uint128),(bool,uint128,uint128))[])",
      "arguments": [
        "[(6898391096552792247, true, 0x0000000000000000000000009abd91ee952d4d4fd4191611d90472b3e8d3f024, 0x000000000000000000000000967ee5714c4b918028b2c0d54f3cb10d98cff643, (false, 0, 0), (false, 0, 0))]"
      ],
      "transaction": {
        "from": "0x305bda6fd153d82b812d986b28dcb07d06a3a639",
        "to": "0x4be8887d15ab64804d9c6e2f15139873a3c5ddc5",
        "gas": "0x50f86",
        "value": "0x0",
        "input": "0xdb6327dc0000000000000000000000000000000000000000000000000000000000000020000000000000000000000000000000000000000000000000000000000000000100000000000000000000000000000000000000000000000000000000000000200000000000000000000000000000000000000000000000005fbc02272fbf20b700000000000000000000000000000000000000000000000000000000000000010000000000000000000000000000000000000000000000000000000000000140000000000000000000000000000000000000000000000000000000000000018000000000000000000000000000000000000000000000000000000000000000000000000000000000000000000000000000000000000000000000000000000000000000000000000000000000000000000000000000000000000000000000000000000000000000000000000000000000000000000000000000000000000000000000000000000000000000000000000000000000000000000000000000000000000000000000000000000000000000000000000000000000000000000000000000000000000000000000000000000000000000000000000000000000000000200000000000000000000000009abd91ee952d4d4fd4191611d90472b3e8d3f0240000000000000000000000000000000000000000000000000000000000000020000000000000000000000000967ee5714c4b918028b2c0d54f3cb10d98cff643",
        "nonce": "0x23",
        "chainId": "0xaa36a7"
      },
      "additionalContracts": [],
      "isFixedGasLimit": false
    }
  ],
  "receipts": [
    {
      "status": "0x1",
      "cumulativeGasUsed": "0x166ffec",
      "logs": [
        {
          "address": "0x4be8887d15ab64804d9c6e2f15139873a3c5ddc5",
          "topics": [
            "0x8d340f17e19058004c20453540862a9c62778504476f6756755cb33bcd6c38c2"
          ],
          "data": "0x0000000000000000000000000000000000000000000000005fbc02272fbf20b700000000000000000000000000000000000000000000000000000000000001000000000000000000000000000000000000000000000000000000000000000000000000000000000000000000000000000000000000000000000000000000000000000000000000000000000000000000000000000000000000000000000000000000000000000000000000000000000000000000000000000000000000000000000000000000000000000000000000000000000000000000000000000000000000000000000000000000000000000000000000000000000000000000000000000000000000000000000000000000000000000000000000000000000000000020000000000000000000000000967ee5714c4b918028b2c0d54f3cb10d98cff643",
          "blockHash": "0x0f79059f288c2f6fa17acbc30435f45a11ded93ac73c99e00c589c92409f6f34",
          "blockNumber": "0x763faa",
          "transactionHash": "0xa5c4a6fc4488d89bcd16927a19fbbc9ffbf5e62e00de1288efd41ce821642c40",
          "transactionIndex": "0x90",
          "logIndex": "0x96",
          "removed": false
        }
      ],
      "logsBloom": "0x00000000000000400000000000000000000000000000000000000000000000000000000000000000000000000000000000000000000000000004000000000000000000000000000000040000000000000000000000000000000000000000000000000000000000000000000000000000000000000000000000000000000000000000000000000000000000000000000000000000000000000000000000000000000000000000000000000000000000080000000000000000000000000000000000000000000000000000000000000000000000000000000000000020000000000000000000000000000000000000000000000000000000000100000000000000",
      "type": "0x2",
      "transactionHash": "0xa5c4a6fc4488d89bcd16927a19fbbc9ffbf5e62e00de1288efd41ce821642c40",
      "transactionIndex": "0x90",
      "blockHash": "0x0f79059f288c2f6fa17acbc30435f45a11ded93ac73c99e00c589c92409f6f34",
      "blockNumber": "0x763faa",
      "gasUsed": "0x3a9f0",
      "effectiveGasPrice": "0x5d157d9b",
      "from": "0x305bda6fd153d82b812d986b28dcb07d06a3a639",
      "to": "0x4be8887d15ab64804d9c6e2f15139873a3c5ddc5",
      "contractAddress": null
    }
  ],
  "libraries": [],
  "pending": [],
  "returns": {},
  "timestamp": 1740076681,
  "chain": 11155111,
  "commit": "6d9d450"
}