{
  "transactions": [
    {
      "hash": "0x1297294ae5284d187510a64801379491b31a22613a234a429a5e8557c22af553",
      "transactionType": "CALL",
      "contractName": null,
      "contractAddress": "0xd9322776250705e28317206b4f1a28575a438c07",
      "function": "applyChainUpdates((uint64,bool,bytes,bytes,(bool,uint128,uint128),(bool,uint128,uint128))[])",
      "arguments": [
        "[(6898391096552792247, true, 0x000000000000000000000000296ab3a16cb1a8eea8b9b03dbab6c988eca6083f, 0x0000000000000000000000006c5e7e2ba412da2ef6bb0c894aeb5ca187d55bff, (false, 0, 0), (false, 0, 0))]"
      ],
      "transaction": {
        "from": "0x305bda6fd153d82b812d986b28dcb07d06a3a639",
        "to": "0xd9322776250705e28317206b4f1a28575a438c07",
        "gas": "0x50f86",
        "value": "0x0",
        "input": "0xdb6327dc0000000000000000000000000000000000000000000000000000000000000020000000000000000000000000000000000000000000000000000000000000000100000000000000000000000000000000000000000000000000000000000000200000000000000000000000000000000000000000000000005fbc02272fbf20b70000000000000000000000000000000000000000000000000000000000000001000000000000000000000000000000000000000000000000000000000000014000000000000000000000000000000000000000000000000000000000000001800000000000000000000000000000000000000000000000000000000000000000000000000000000000000000000000000000000000000000000000000000000000000000000000000000000000000000000000000000000000000000000000000000000000000000000000000000000000000000000000000000000000000000000000000000000000000000000000000000000000000000000000000000000000000000000000000000000000000000000000000000000000000000000000000000000000000000000000000000000000000000000000000000000000000020000000000000000000000000296ab3a16cb1a8eea8b9b03dbab6c988eca6083f00000000000000000000000000000000000000000000000000000000000000200000000000000000000000006c5e7e2ba412da2ef6bb0c894aeb5ca187d55bff",
        "nonce": "0x5c",
        "chainId": "0xaa36a7"
      },
      "additionalContracts": [],
      "isFixedGasLimit": false
    }
  ],
  "receipts": [
    {
      "status": "0x1",
      "cumulativeGasUsed": "0x21b6248",
      "logs": [
        {
          "address": "0xd9322776250705e28317206b4f1a28575a438c07",
          "topics": [
            "0x8d340f17e19058004c20453540862a9c62778504476f6756755cb33bcd6c38c2"
          ],
          "data": "0x0000000000000000000000000000000000000000000000005fbc02272fbf20b7000000000000000000000000000000000000000000000000000000000000010000000000000000000000000000000000000000000000000000000000000000000000000000000000000000000000000000000000000000000000000000000000000000000000000000000000000000000000000000000000000000000000000000000000000000000000000000000000000000000000000000000000000000000000000000000000000000000000000000000000000000000000000000000000000000000000000000000000000000000000000000000000000000000000000000000000000000000000000000000000000000000000000000000000000000200000000000000000000000006c5e7e2ba412da2ef6bb0c894aeb5ca187d55bff",
          "blockHash": "0x5c6f5b06f90b961d4135976c36b18e377fa4cf141fd48f453b8dd06740f27619",
          "blockNumber": "0x764577",
          "transactionHash": "0x1297294ae5284d187510a64801379491b31a22613a234a429a5e8557c22af553",
          "transactionIndex": "0x73",
          "logIndex": "0x1113",
          "removed": false
        }
      ],
      "logsBloom": "0x00000000000000400000000000000000000000000000000000000000000000000000001000000000000000000000000000000200000000000004000000000000000000000000000000000000000000000000000000000000000000000000000000000000000000000000000000000000000000000000000000000000000000000000000000000000000000000000000000000000000000000000000000000000000000000000000000000000000000000000000000000000000000000000000000000000000000000000000000000000000000000000200000000000000000000000000000000000000000000000000000000000000000000100000000000000",
      "type": "0x2",
      "transactionHash": "0x1297294ae5284d187510a64801379491b31a22613a234a429a5e8557c22af553",
      "transactionIndex": "0x73",
      "blockHash": "0x5c6f5b06f90b961d4135976c36b18e377fa4cf141fd48f453b8dd06740f27619",
      "blockNumber": "0x764577",
      "gasUsed": "0x3a9f0",
      "effectiveGasPrice": "0x45155a60",
      "from": "0x305bda6fd153d82b812d986b28dcb07d06a3a639",
      "to": "0xd9322776250705e28317206b4f1a28575a438c07",
      "contractAddress": null
    }
  ],
  "libraries": [],
  "pending": [],
  "returns": {},
  "timestamp": 1740094968,
  "chain": 11155111,
  "commit": "6d9d450"
}