{
  "transactions": [
    {
      "hash": "0xca5eeaa6db22bd8b23893056425e9b0f1504ef0c4930913a95921ca5a9bc2b20",
      "transactionType": "CALL",
      "contractName": null,
      "contractAddress": "0x558b9846a56868727d7da8666829a9c9439d5524",
      "function": "applyChainUpdates((uint64,bool,bytes,bytes,(bool,uint128,uint128),(bool,uint128,uint128))[])",
      "arguments": [
        "[(6898391096552792247, true, 0x0000000000000000000000002d23fa9942864faf765b59ac29488eb99ada4b01, 0x000000000000000000000000061c27c789ce0a77f43df5326f831cbba1bae2cf, (false, 0, 0), (false, 0, 0))]"
      ],
      "transaction": {
        "from": "0x305bda6fd153d82b812d986b28dcb07d06a3a639",
        "to": "0x558b9846a56868727d7da8666829a9c9439d5524",
        "gas": "0x50f86",
        "value": "0x0",
        "input": "0xdb6327dc0000000000000000000000000000000000000000000000000000000000000020000000000000000000000000000000000000000000000000000000000000000100000000000000000000000000000000000000000000000000000000000000200000000000000000000000000000000000000000000000005fbc02272fbf20b700000000000000000000000000000000000000000000000000000000000000010000000000000000000000000000000000000000000000000000000000000140000000000000000000000000000000000000000000000000000000000000018000000000000000000000000000000000000000000000000000000000000000000000000000000000000000000000000000000000000000000000000000000000000000000000000000000000000000000000000000000000000000000000000000000000000000000000000000000000000000000000000000000000000000000000000000000000000000000000000000000000000000000000000000000000000000000000000000000000000000000000000000000000000000000000000000000000000000000000000000000000000000000000000000000000000000200000000000000000000000002d23fa9942864faf765b59ac29488eb99ada4b010000000000000000000000000000000000000000000000000000000000000020000000000000000000000000061c27c789ce0a77f43df5326f831cbba1bae2cf",
        "nonce": "0x32",
        "chainId": "0xaa36a7"
      },
      "additionalContracts": [],
      "isFixedGasLimit": false
    }
  ],
  "receipts": [
    {
      "status": "0x1",
      "cumulativeGasUsed": "0x99a7b1",
      "logs": [
        {
          "address": "0x558b9846a56868727d7da8666829a9c9439d5524",
          "topics": [
            "0x8d340f17e19058004c20453540862a9c62778504476f6756755cb33bcd6c38c2"
          ],
          "data": "0x0000000000000000000000000000000000000000000000005fbc02272fbf20b700000000000000000000000000000000000000000000000000000000000001000000000000000000000000000000000000000000000000000000000000000000000000000000000000000000000000000000000000000000000000000000000000000000000000000000000000000000000000000000000000000000000000000000000000000000000000000000000000000000000000000000000000000000000000000000000000000000000000000000000000000000000000000000000000000000000000000000000000000000000000000000000000000000000000000000000000000000000000000000000000000000000000000000000000000020000000000000000000000000061c27c789ce0a77f43df5326f831cbba1bae2cf",
          "blockHash": "0xcfaca1cf4eb630429bf263a80ba89e4cb67e47a6ab100dee3c98637c87d617a9",
          "blockNumber": "0x764034",
          "transactionHash": "0xca5eeaa6db22bd8b23893056425e9b0f1504ef0c4930913a95921ca5a9bc2b20",
          "transactionIndex": "0x91",
          "logIndex": "0x72",
          "removed": false
        }
      ],
      "logsBloom": "0x00000000000000400000000000001000000000000000000000000000000000000000000000000000000000000000000000000000000000000404000000000000000000000000000000000000000000000000000000000000000000000000000000000000000000000000000000000000000000000000000000000000000000000000000000000000000000000000000000000000000000000000000000000000000000000000000000000000000000000000000000000000000000000000000000000000000000000000000000000000000000000000000000000000000000000000000000000000000000000000000000000020000000000100000000000000",
      "type": "0x2",
      "transactionHash": "0xca5eeaa6db22bd8b23893056425e9b0f1504ef0c4930913a95921ca5a9bc2b20",
      "transactionIndex": "0x91",
      "blockHash": "0xcfaca1cf4eb630429bf263a80ba89e4cb67e47a6ab100dee3c98637c87d617a9",
      "blockNumber": "0x764034",
      "gasUsed": "0x3a9f0",
      "effectiveGasPrice": "0x52434fb8",
      "from": "0x305bda6fd153d82b812d986b28dcb07d06a3a639",
      "to": "0x558b9846a56868727d7da8666829a9c9439d5524",
      "contractAddress": null
    }
  ],
  "libraries": [],
  "pending": [],
  "returns": {},
  "timestamp": 1740078396,
  "chain": 11155111,
  "commit": "6d9d450"
}