{
  "transactions": [
    {
      "hash": "0xab095d7bbdb9a019b87c2cfb8d7ec95c80700607704d44dea14662a65b17eafc",
      "transactionType": "CALL",
      "contractName": null,
      "contractAddress": "0x7403d45c5a0a171aff6d2996ff5c4fc67334f153",
      "function": "applyChainUpdates((uint64,bool,bytes,bytes,(bool,uint128,uint128),(bool,uint128,uint128))[])",
      "arguments": [
        "[(6898391096552792247, true, 0x000000000000000000000000313f750f10acf563d679c16d4d3db0ceea68da52, 0x00000000000000000000000085699d0dddbbc3bc952ca17dad64b2edee363f64, (false, 0, 0), (false, 0, 0))]"
      ],
      "transaction": {
        "from": "0x305bda6fd153d82b812d986b28dcb07d06a3a639",
        "to": "0x7403d45c5a0a171aff6d2996ff5c4fc67334f153",
        "gas": "0x50f86",
        "value": "0x0",
        "input": "0xdb6327dc0000000000000000000000000000000000000000000000000000000000000020000000000000000000000000000000000000000000000000000000000000000100000000000000000000000000000000000000000000000000000000000000200000000000000000000000000000000000000000000000005fbc02272fbf20b70000000000000000000000000000000000000000000000000000000000000001000000000000000000000000000000000000000000000000000000000000014000000000000000000000000000000000000000000000000000000000000001800000000000000000000000000000000000000000000000000000000000000000000000000000000000000000000000000000000000000000000000000000000000000000000000000000000000000000000000000000000000000000000000000000000000000000000000000000000000000000000000000000000000000000000000000000000000000000000000000000000000000000000000000000000000000000000000000000000000000000000000000000000000000000000000000000000000000000000000000000000000000000000000000000000000000020000000000000000000000000313f750f10acf563d679c16d4d3db0ceea68da52000000000000000000000000000000000000000000000000000000000000002000000000000000000000000085699d0dddbbc3bc952ca17dad64b2edee363f64",
        "nonce": "0x3e",
        "chainId": "0xaa36a7"
      },
      "additionalContracts": [],
      "isFixedGasLimit": false
    }
  ],
  "receipts": [
    {
      "status": "0x1",
      "cumulativeGasUsed": "0x1031149",
      "logs": [
        {
          "address": "0x7403d45c5a0a171aff6d2996ff5c4fc67334f153",
          "topics": [
            "0x8d340f17e19058004c20453540862a9c62778504476f6756755cb33bcd6c38c2"
          ],
          "data": "0x0000000000000000000000000000000000000000000000005fbc02272fbf20b70000000000000000000000000000000000000000000000000000000000000100000000000000000000000000000000000000000000000000000000000000000000000000000000000000000000000000000000000000000000000000000000000000000000000000000000000000000000000000000000000000000000000000000000000000000000000000000000000000000000000000000000000000000000000000000000000000000000000000000000000000000000000000000000000000000000000000000000000000000000000000000000000000000000000000000000000000000000000000000000000000000000000000000000000000002000000000000000000000000085699d0dddbbc3bc952ca17dad64b2edee363f64",
          "blockHash": "0xa5cbe99d484874fa9027b90a568472cf438c011fffb6e0e1b3826322941c3c55",
          "blockNumber": "0x76438f",
          "transactionHash": "0xab095d7bbdb9a019b87c2cfb8d7ec95c80700607704d44dea14662a65b17eafc",
          "transactionIndex": "0x5c",
          "logIndex": "0x124",
          "removed": false
        }
      ],
      "logsBloom": "0x00000000000000400000000000000000000000000000000000000000000000000000000000000000000000000000000000000000000000000004004000000000000000000000000000000000000000000000000000000000000000000000000000000000000000000000000000000000000000000000000000000000000000000000000000000000000000000000000000000000000000000000000000000000000000000000000000000000000000000000002000000000000000000000000000000000000000000000000000000000000000200000000000000000000000000000000000000000000000000000000000000000000000000100000000000000",
      "type": "0x2",
      "transactionHash": "0xab095d7bbdb9a019b87c2cfb8d7ec95c80700607704d44dea14662a65b17eafc",
      "transactionIndex": "0x5c",
      "blockHash": "0xa5cbe99d484874fa9027b90a568472cf438c011fffb6e0e1b3826322941c3c55",
      "blockNumber": "0x76438f",
      "gasUsed": "0x3a9f0",
      "effectiveGasPrice": "0x403bbc94",
      "from": "0x305bda6fd153d82b812d986b28dcb07d06a3a639",
      "to": "0x7403d45c5a0a171aff6d2996ff5c4fc67334f153",
      "contractAddress": null
    }
  ],
  "libraries": [],
  "pending": [],
  "returns": {},
  "timestamp": 1740089006,
  "chain": 11155111,
  "commit": "6d9d450"
}