{
  "transactions": [
    {
      "hash": "0x3383303a70846e224b422cc807a6e2729472139047f32fcadc0e1f6d5417b5e7",
      "transactionType": "CALL",
      "contractName": null,
      "contractAddress": "0x6ef755f8dfe04aae69d907bed3289785d698e619",
      "function": "applyChainUpdates((uint64,bool,bytes,bytes,(bool,uint128,uint128),(bool,uint128,uint128))[])",
      "arguments": [
        "[(6898391096552792247, true, 0x000000000000000000000000ca98d43b0c4361036150bbdd3c37249d3428dabd, 0x0000000000000000000000009cfdc0db84752e47c022b9decd28ce2ffa4aa2ba, (false, 0, 0), (false, 0, 0))]"
      ],
      "transaction": {
        "from": "0x305bda6fd153d82b812d986b28dcb07d06a3a639",
        "to": "0x6ef755f8dfe04aae69d907bed3289785d698e619",
        "gas": "0x50f86",
        "value": "0x0",
        "input": "0xdb6327dc0000000000000000000000000000000000000000000000000000000000000020000000000000000000000000000000000000000000000000000000000000000100000000000000000000000000000000000000000000000000000000000000200000000000000000000000000000000000000000000000005fbc02272fbf20b70000000000000000000000000000000000000000000000000000000000000001000000000000000000000000000000000000000000000000000000000000014000000000000000000000000000000000000000000000000000000000000001800000000000000000000000000000000000000000000000000000000000000000000000000000000000000000000000000000000000000000000000000000000000000000000000000000000000000000000000000000000000000000000000000000000000000000000000000000000000000000000000000000000000000000000000000000000000000000000000000000000000000000000000000000000000000000000000000000000000000000000000000000000000000000000000000000000000000000000000000000000000000000000000000000000000000020000000000000000000000000ca98d43b0c4361036150bbdd3c37249d3428dabd00000000000000000000000000000000000000000000000000000000000000200000000000000000000000009cfdc0db84752e47c022b9decd28ce2ffa4aa2ba",
        "nonce": "0x38",
        "chainId": "0xaa36a7"
      },
      "additionalContracts": [],
      "isFixedGasLimit": false
    }
  ],
  "receipts": [
    {
      "status": "0x1",
      "cumulativeGasUsed": "0x164f5a5",
      "logs": [
        {
          "address": "0x6ef755f8dfe04aae69d907bed3289785d698e619",
          "topics": [
            "0x8d340f17e19058004c20453540862a9c62778504476f6756755cb33bcd6c38c2"
          ],
          "data": "0x0000000000000000000000000000000000000000000000005fbc02272fbf20b7000000000000000000000000000000000000000000000000000000000000010000000000000000000000000000000000000000000000000000000000000000000000000000000000000000000000000000000000000000000000000000000000000000000000000000000000000000000000000000000000000000000000000000000000000000000000000000000000000000000000000000000000000000000000000000000000000000000000000000000000000000000000000000000000000000000000000000000000000000000000000000000000000000000000000000000000000000000000000000000000000000000000000000000000000000200000000000000000000000009cfdc0db84752e47c022b9decd28ce2ffa4aa2ba",
          "blockHash": "0x125e2a89595cf6b0c04af5fec678ad3df0578342095d32a6bbc7959e05872b17",
          "blockNumber": "0x76406a",
          "transactionHash": "0x3383303a70846e224b422cc807a6e2729472139047f32fcadc0e1f6d5417b5e7",
          "transactionIndex": "0x85",
          "logIndex": "0x6d",
          "removed": false
        }
      ],
      "logsBloom": "0x00000000000000400000000000000000000000000002000000000000000000000000000000000000000000000000000000000000000001000004000000000000000000000000000000000000000000000000000000000000000000000000000000000000000000000000000000000000000000000000000000000000000000000000000000000000000000000000000000000000000000000000000000000000000000000000000000000000000000000000000000040000000000000000000000000000000000000000000000000000000000000000000000000000000000000000000000000000000000000000000000000000000000000100000000000000",
      "type": "0x2",
      "transactionHash": "0x3383303a70846e224b422cc807a6e2729472139047f32fcadc0e1f6d5417b5e7",
      "transactionIndex": "0x85",
      "blockHash": "0x125e2a89595cf6b0c04af5fec678ad3df0578342095d32a6bbc7959e05872b17",
      "blockNumber": "0x76406a",
      "gasUsed": "0x3a9f0",
      "effectiveGasPrice": "0x413c5cdd",
      "from": "0x305bda6fd153d82b812d986b28dcb07d06a3a639",
      "to": "0x6ef755f8dfe04aae69d907bed3289785d698e619",
      "contractAddress": null
    }
  ],
  "libraries": [],
  "pending": [],
  "returns": {},
  "timestamp": 1740079058,
  "chain": 11155111,
  "commit": "6d9d450"
}