{
  "transactions": [
    {
      "hash": "0xacafc32f9f050d3fa061686025efaa45306b8e84fa46de63fa2c1b467760d468",
      "transactionType": "CALL",
      "contractName": null,
      "contractAddress": "0x779877a7b0d9e8603169ddbd7836e478b4624789",
      "function": "approve(address,uint256)",
      "arguments": [
        "0x0BF3dE8c5D3e8A2B34D2BEeB17ABfCeBaf363A59",
        "14246037987892664"
      ],
      "transaction": {
        "from": "0x305bda6fd153d82b812d986b28dcb07d06a3a639",
        "to": "0x779877a7b0d9e8603169ddbd7836e478b4624789",
        "gas": "0x8e13",
        "value": "0x0",
        "input": "0x095ea7b30000000000000000000000000bf3de8c5d3e8a2b34d2beeb17abfcebaf363a5900000000000000000000000000000000000000000000000000329cb231b99db8",
        "nonce": "0x62",
        "chainId": "0xaa36a7"
      },
      "additionalContracts": [],
      "isFixedGasLimit": false
    },
    {
      "hash": "0x81ba19680719cdec3df229dc07f3f980fddafe1d505bd2c5205d50efe3ade21b",
      "transactionType": "CALL",
      "contractName": null,
      "contractAddress": "0xcee3daf9150d4dfab47ea10edafdc2d94c2ec4f0",
      "function": "approve(address,uint256)",
      "arguments": [
        "0x0BF3dE8c5D3e8A2B34D2BEeB17ABfCeBaf363A59",
        "100000"
      ],
      "transaction": {
        "from": "0x305bda6fd153d82b812d986b28dcb07d06a3a639",
        "to": "0xcee3daf9150d4dfab47ea10edafdc2d94c2ec4f0",
        "gas": "0x10670",
        "value": "0x0",
        "input": "0x095ea7b30000000000000000000000000bf3de8c5d3e8a2b34d2beeb17abfcebaf363a5900000000000000000000000000000000000000000000000000000000000186a0",
        "nonce": "0x63",
        "chainId": "0xaa36a7"
      },
      "additionalContracts": [],
      "isFixedGasLimit": false
    },
    {
      "hash": "0x96550d497fd0e5009bff880a9c5db993e59d223d07244b09488f5ab15b704083",
      "transactionType": "CALL",
      "contractName": null,
      "contractAddress": "0x0bf3de8c5d3e8a2b34d2beeb17abfcebaf363a59",
      "function": "ccipSend(uint64,(bytes,bytes,(address,uint256)[],address,bytes))",
      "arguments": [
        "6898391096552792247",
        "(0x000000000000000000000000305bda6fd153d82b812d986b28dcb07d06a3a639, 0x, [(0xCEe3DAF9150D4dfaB47ea10EdaFdc2d94c2EC4f0, 100000)], 0x779877A7B0D9E8603169DdbD7836e478b4624789, 0x97a657c90000000000000000000000000000000000000000000000000000000000000000)"
      ],
      "transaction": {
        "from": "0x305bda6fd153d82b812d986b28dcb07d06a3a639",
        "to": "0x0bf3de8c5d3e8a2b34d2beeb17abfcebaf363a59",
        "gas": "0x5ad5e",
        "value": "0x0",
        "input": "0x96f4e9f90000000000000000000000000000000000000000000000005fbc02272fbf20b7000000000000000000000000000000000000000000000000000000000000004000000000000000000000000000000000000000000000000000000000000000a000000000000000000000000000000000000000000000000000000000000000e00000000000000000000000000000000000000000000000000000000000000100000000000000000000000000779877a7b0d9e8603169ddbd7836e478b462478900000000000000000000000000000000000000000000000000000000000001600000000000000000000000000000000000000000000000000000000000000020000000000000000000000000305bda6fd153d82b812d986b28dcb07d06a3a63900000000000000000000000000000000000000000000000000000000000000000000000000000000000000000000000000000000000000000000000000000001000000000000000000000000cee3daf9150d4dfab47ea10edafdc2d94c2ec4f000000000000000000000000000000000000000000000000000000000000186a0000000000000000000000000000000000000000000000000000000000000002497a657c9000000000000000000000000000000000000000000000000000000000000000000000000000000000000000000000000000000000000000000000000",
        "nonce": "0x64",
        "chainId": "0xaa36a7"
      },
      "additionalContracts": [],
      "isFixedGasLimit": false
    }
  ],
  "receipts": [
    {
      "status": "0x1",
      "cumulativeGasUsed": "0x2005b63",
      "logs": [
        {
          "address": "0x779877a7b0d9e8603169ddbd7836e478b4624789",
          "topics": [
            "0x8c5be1e5ebec7d5bd14f71427d1e84f3dd0314c0f7b2291e5b200ac8c7c3b925",
            "0x000000000000000000000000305bda6fd153d82b812d986b28dcb07d06a3a639",
            "0x0000000000000000000000000bf3de8c5d3e8a2b34d2beeb17abfcebaf363a59"
          ],
          "data": "0x00000000000000000000000000000000000000000000000000329cb231b99db8",
          "blockHash": "0xd98df5308d4a667dd5075316b08d1dcf9116a13ffb5d24e0a1aea7075c740ea7",
          "blockNumber": "0x7645a0",
          "transactionHash": "0xacafc32f9f050d3fa061686025efaa45306b8e84fa46de63fa2c1b467760d468",
          "transactionIndex": "0x4d",
          "logIndex": "0x10e3",
          "removed": false
        }
      ],
      "logsBloom": "0x00000004000040000000000000000000000000000000000000000000000000000000000000000000000000000000000000000000000000000000000008200000000000000000000000000000000000000000000000000000000000000000000000000000000100000000000001000000000000000000000000000000000000000000000000000000000000000000800000000000000000000000000000000000020000000000080000000000000000000000000000000000000000000000000000000000000000000000000000000000000000000000000500000000000000000010000000000000000000000000000000000000000000000000000000000000",
      "type": "0x2",
      "transactionHash": "0xacafc32f9f050d3fa061686025efaa45306b8e84fa46de63fa2c1b467760d468",
      "transactionIndex": "0x4d",
      "blockHash": "0xd98df5308d4a667dd5075316b08d1dcf9116a13ffb5d24e0a1aea7075c740ea7",
      "blockNumber": "0x7645a0",
      "gasUsed": "0x66dd",
      "effectiveGasPrice": "0x4204a611",
      "from": "0x305bda6fd153d82b812d986b28dcb07d06a3a639",
      "to": "0x779877a7b0d9e8603169ddbd7836e478b4624789",
      "contractAddress": null
    },
    {
      "status": "0x1",
      "cumulativeGasUsed": "0x2010ed5",
      "logs": [
        {
          "address": "0xcee3daf9150d4dfab47ea10edafdc2d94c2ec4f0",
          "topics": [
            "0x8c5be1e5ebec7d5bd14f71427d1e84f3dd0314c0f7b2291e5b200ac8c7c3b925",
            "0x000000000000000000000000305bda6fd153d82b812d986b28dcb07d06a3a639",
            "0x0000000000000000000000000bf3de8c5d3e8a2b34d2beeb17abfcebaf363a59"
          ],
          "data": "0x00000000000000000000000000000000000000000000000000000000000186a0",
          "blockHash": "0xd98df5308d4a667dd5075316b08d1dcf9116a13ffb5d24e0a1aea7075c740ea7",
          "blockNumber": "0x7645a0",
          "transactionHash": "0x81ba19680719cdec3df229dc07f3f980fddafe1d505bd2c5205d50efe3ade21b",
          "transactionIndex": "0x4e",
          "logIndex": "0x10e4",
          "removed": false
        }
      ],
      "logsBloom": "0x00000000000040000000000000000000000000000000008000000000000000000000000000000000000000000000000000000000000000000000000008200000000000000000000000000000000000000000000000000000000000000000000000000000000100000000000001000000000000000000000000000000000000000000000000020000800000000000000000000000000000000000000000000000020000000000080000000000000000000000000000000000000000000000000000000000000000000000000000000000000000000000000400000000000000000010000000000000000000000000000000000000000000000000000000000000",
      "type": "0x2",
      "transactionHash": "0x81ba19680719cdec3df229dc07f3f980fddafe1d505bd2c5205d50efe3ade21b",
      "transactionIndex": "0x4e",
      "blockHash": "0xd98df5308d4a667dd5075316b08d1dcf9116a13ffb5d24e0a1aea7075c740ea7",
      "blockNumber": "0x7645a0",
      "gasUsed": "0xb372",
      "effectiveGasPrice": "0x4204a611",
      "from": "0x305bda6fd153d82b812d986b28dcb07d06a3a639",
      "to": "0xcee3daf9150d4dfab47ea10edafdc2d94c2ec4f0",
      "contractAddress": null
    },
    {
      "status": "0x1",
      "cumulativeGasUsed": "0x2052b0c",
      "logs": [
        {
          "address": "0x779877a7b0d9e8603169ddbd7836e478b4624789",
          "topics": [
            "0xddf252ad1be2c89b69c2b068fc378daa952ba7f163c4a11628f55a4df523b3ef",
            "0x000000000000000000000000305bda6fd153d82b812d986b28dcb07d06a3a639",
            "0x000000000000000000000000a2865e4f36760f5fa5c8f958336120f2df0d974b"
          ],
          "data": "0x00000000000000000000000000000000000000000000000000329cb231b99db8",
          "blockHash": "0xd98df5308d4a667dd5075316b08d1dcf9116a13ffb5d24e0a1aea7075c740ea7",
          "blockNumber": "0x7645a0",
          "transactionHash": "0x96550d497fd0e5009bff880a9c5db993e59d223d07244b09488f5ab15b704083",
          "transactionIndex": "0x4f",
          "logIndex": "0x10e5",
          "removed": false
        },
        {
          "address": "0x779877a7b0d9e8603169ddbd7836e478b4624789",
          "topics": [
            "0x8c5be1e5ebec7d5bd14f71427d1e84f3dd0314c0f7b2291e5b200ac8c7c3b925",
            "0x000000000000000000000000305bda6fd153d82b812d986b28dcb07d06a3a639",
            "0x0000000000000000000000000bf3de8c5d3e8a2b34d2beeb17abfcebaf363a59"
          ],
          "data": "0x0000000000000000000000000000000000000000000000000000000000000000",
          "blockHash": "0xd98df5308d4a667dd5075316b08d1dcf9116a13ffb5d24e0a1aea7075c740ea7",
          "blockNumber": "0x7645a0",
          "transactionHash": "0x96550d497fd0e5009bff880a9c5db993e59d223d07244b09488f5ab15b704083",
          "transactionIndex": "0x4f",
          "logIndex": "0x10e6",
          "removed": false
        },
        {
          "address": "0xcee3daf9150d4dfab47ea10edafdc2d94c2ec4f0",
          "topics": [
            "0xddf252ad1be2c89b69c2b068fc378daa952ba7f163c4a11628f55a4df523b3ef",
            "0x0000000000000000000000000000000000000000000000000000000000000000",
            "0x000000000000000000000000305bda6fd153d82b812d986b28dcb07d06a3a639"
          ],
          "data": "0x0000000000000000000000000000000000000000000000000000000000000002",
          "blockHash": "0xd98df5308d4a667dd5075316b08d1dcf9116a13ffb5d24e0a1aea7075c740ea7",
          "blockNumber": "0x7645a0",
          "transactionHash": "0x96550d497fd0e5009bff880a9c5db993e59d223d07244b09488f5ab15b704083",
          "transactionIndex": "0x4f",
          "logIndex": "0x10e7",
          "removed": false
        },
        {
          "address": "0xcee3daf9150d4dfab47ea10edafdc2d94c2ec4f0",
          "topics": [
            "0xddf252ad1be2c89b69c2b068fc378daa952ba7f163c4a11628f55a4df523b3ef",
            "0x0000000000000000000000000000000000000000000000000000000000000000",
            "0x000000000000000000000000d9322776250705e28317206b4f1a28575a438c07"
          ],
          "data": "0x0000000000000000000000000000000000000000000000000000000000000000",
          "blockHash": "0xd98df5308d4a667dd5075316b08d1dcf9116a13ffb5d24e0a1aea7075c740ea7",
          "blockNumber": "0x7645a0",
          "transactionHash": "0x96550d497fd0e5009bff880a9c5db993e59d223d07244b09488f5ab15b704083",
          "transactionIndex": "0x4f",
          "logIndex": "0x10e8",
          "removed": false
        },
        {
          "address": "0xcee3daf9150d4dfab47ea10edafdc2d94c2ec4f0",
          "topics": [
            "0xddf252ad1be2c89b69c2b068fc378daa952ba7f163c4a11628f55a4df523b3ef",
            "0x000000000000000000000000305bda6fd153d82b812d986b28dcb07d06a3a639",
            "0x000000000000000000000000d9322776250705e28317206b4f1a28575a438c07"
          ],
          "data": "0x00000000000000000000000000000000000000000000000000000000000186a0",
          "blockHash": "0xd98df5308d4a667dd5075316b08d1dcf9116a13ffb5d24e0a1aea7075c740ea7",
          "blockNumber": "0x7645a0",
          "transactionHash": "0x96550d497fd0e5009bff880a9c5db993e59d223d07244b09488f5ab15b704083",
          "transactionIndex": "0x4f",
          "logIndex": "0x10e9",
          "removed": false
        },
        {
          "address": "0xcee3daf9150d4dfab47ea10edafdc2d94c2ec4f0",
          "topics": [
            "0xddf252ad1be2c89b69c2b068fc378daa952ba7f163c4a11628f55a4df523b3ef",
            "0x0000000000000000000000000000000000000000000000000000000000000000",
            "0x000000000000000000000000d9322776250705e28317206b4f1a28575a438c07"
          ],
          "data": "0x0000000000000000000000000000000000000000000000000000000000000000",
          "blockHash": "0xd98df5308d4a667dd5075316b08d1dcf9116a13ffb5d24e0a1aea7075c740ea7",
          "blockNumber": "0x7645a0",
          "transactionHash": "0x96550d497fd0e5009bff880a9c5db993e59d223d07244b09488f5ab15b704083",
          "transactionIndex": "0x4f",
          "logIndex": "0x10ea",
          "removed": false
        },
        {
          "address": "0xcee3daf9150d4dfab47ea10edafdc2d94c2ec4f0",
          "topics": [
            "0xddf252ad1be2c89b69c2b068fc378daa952ba7f163c4a11628f55a4df523b3ef",
            "0x000000000000000000000000d9322776250705e28317206b4f1a28575a438c07",
            "0x0000000000000000000000000000000000000000000000000000000000000000"
          ],
          "data": "0x00000000000000000000000000000000000000000000000000000000000186a0",
          "blockHash": "0xd98df5308d4a667dd5075316b08d1dcf9116a13ffb5d24e0a1aea7075c740ea7",
          "blockNumber": "0x7645a0",
          "transactionHash": "0x96550d497fd0e5009bff880a9c5db993e59d223d07244b09488f5ab15b704083",
          "transactionIndex": "0x4f",
          "logIndex": "0x10eb",
          "removed": false
        },
        {
          "address": "0xa2865e4f36760f5fa5c8f958336120f2df0d974b",
          "topics": [
            "0xd0c3c799bf9e2639de44391e7f524d229b2b55f5b1ea94b2bf7da42f7243dddd"
          ],
          "data": "0x0000000000000000000000000000000000000000000000000000000000000020000000000000000000000000000000000000000000000000de41ba4fc9d91ad9000000000000000000000000305bda6fd153d82b812d986b28dcb07d06a3a639000000000000000000000000305bda6fd153d82b812d986b28dcb07d06a3a63900000000000000000000000000000000000000000000000000000000000001a9000000000000000000000000000000000000000000000000000000000000000000000000000000000000000000000000000000000000000000000000000000000000000000000000000000000000000000000000000000000000000000000001000000000000000000000000779877a7b0d9e8603169ddbd7836e478b462478900000000000000000000000000000000000000000000000000329cb231b99db800000000000000000000000000000000000000000000000000000000000001a000000000000000000000000000000000000000000000000000000000000001c000000000000000000000000000000000000000000000000000000000000002203ce493d3a3a26ed55819e1f2c88b36144412be9183541c04b4a2bc520422564f00000000000000000000000000000000000000000000000000000000000000000000000000000000000000000000000000000000000000000000000000000001000000000000000000000000cee3daf9150d4dfab47ea10edafdc2d94c2ec4f000000000000000000000000000000000000000000000000000000000000186a00000000000000000000000000000000000000000000000000000000000000001000000000000000000000000000000000000000000000000000000000000002000000000000000000000000000000000000000000000000000000000000001600000000000000000000000000000000000000000000000000000000000000020000000000000000000000000000000000000000000000000000000000000008000000000000000000000000000000000000000000000000000000000000000c000000000000000000000000000000000000000000000000000000000000001000000000000000000000000000000000000000000000000000000000000015f900000000000000000000000000000000000000000000000000000000000000020000000000000000000000000d9322776250705e28317206b4f1a28575a438c0700000000000000000000000000000000000000000000000000000000000000200000000000000000000000006c5e7e2ba412da2ef6bb0c894aeb5ca187d55bff00000000000000000000000000000000000000000000000000000000000000200000000000000000000000000000000000000000000000000000000ba43b7400",
          "blockHash": "0xd98df5308d4a667dd5075316b08d1dcf9116a13ffb5d24e0a1aea7075c740ea7",
          "blockNumber": "0x7645a0",
          "transactionHash": "0x96550d497fd0e5009bff880a9c5db993e59d223d07244b09488f5ab15b704083",
          "transactionIndex": "0x4f",
          "logIndex": "0x10ec",
          "removed": false
        }
      ],
      "logsBloom": "0x00000004000040000000000000000000000000000000008000000000000000000000000000000000000080000000000000000000000000000000000008280000000000000000000000000008000000000000000000000000000000000000008010000000020100000000000001000800000000000000100000000010000000000000000000020000800000000000800000000000000000000000000000000000020000000000080400000000000000000000000000000000000100010000000000000002000000000000000000000000000000000100000500000000000020000010800000000000000000000000000004000800000000000000000000000000",
      "type": "0x2",
      "transactionHash": "0x96550d497fd0e5009bff880a9c5db993e59d223d07244b09488f5ab15b704083",
      "transactionIndex": "0x4f",
      "blockHash": "0xd98df5308d4a667dd5075316b08d1dcf9116a13ffb5d24e0a1aea7075c740ea7",
      "blockNumber": "0x7645a0",
      "gasUsed": "0x41c37",
      "effectiveGasPrice": "0x4204a611",
      "from": "0x305bda6fd153d82b812d986b28dcb07d06a3a639",
      "to": "0x0bf3de8c5d3e8a2b34d2beeb17abfcebaf363a59",
      "contractAddress": null
    }
  ],
  "libraries": [],
  "pending": [],
  "returns": {},
  "timestamp": 1740095461,
  "chain": 11155111,
  "commit": "6d9d450"
}