{
  "transactions": [
    {
      "hash": "0xf0f45bd0c8363fdb028b1762dffa61275f1eee26c383c83cdf86fd90d09418c0",
      "transactionType": "CALL",
      "contractName": null,
      "contractAddress": "0x62e731218d0d47305aba2be3751e7ee9e5520790",
      "function": "registerAdminViaOwner(address)",
      "arguments": [
        "0x8708bFF029BdB6d24DC1e6d45E27419D12D66A7C"
      ],
      "transaction": {
        "from": "0x305bda6fd153d82b812d986b28dcb07d06a3a639",
        "to": "0x62e731218d0d47305aba2be3751e7ee9e5520790",
        "gas": "0x27714",
        "value": "0x0",
        "input": "0x96ea2f7a0000000000000000000000008708bff029bdb6d24dc1e6d45e27419d12d66a7c",
        "nonce": "0x53",
        "chainId": "0xaa36a7"
      },
      "additionalContracts": [],
      "isFixedGasLimit": false
    },
    {
      "hash": "0xf86ed6ae5f59366ead12c8954065dd033fa49e8f6ab2f73942c0f4d1dee3fc0a",
      "transactionType": "CALL",
      "contractName": null,
      "contractAddress": "0x95f29fee11c5c55d26cccf1db6772de953b37b82",
      "function": "acceptAdminRole(address)",
      "arguments": [
        "0x8708bFF029BdB6d24DC1e6d45E27419D12D66A7C"
      ],
      "transaction": {
        "from": "0x305bda6fd153d82b812d986b28dcb07d06a3a639",
        "to": "0x95f29fee11c5c55d26cccf1db6772de953b37b82",
        "gas": "0x10611",
        "value": "0x0",
        "input": "0x156194da0000000000000000000000008708bff029bdb6d24dc1e6d45e27419d12d66a7c",
        "nonce": "0x54",
        "chainId": "0xaa36a7"
      },
      "additionalContracts": [],
      "isFixedGasLimit": false
    },
    {
      "hash": "0x7ba20e3c5fe3a84d31c70b0812d60f0739d21e49070897d71fd5c04c77a4ef71",
      "transactionType": "CALL",
      "contractName": null,
      "contractAddress": "0x95f29fee11c5c55d26cccf1db6772de953b37b82",
      "function": "setPool(address,address)",
      "arguments": [
        "0x8708bFF029BdB6d24DC1e6d45E27419D12D66A7C",
        "0x2cCAFFAef006b54E52698ADC016AdE025D192750"
      ],
      "transaction": {
        "from": "0x305bda6fd153d82b812d986b28dcb07d06a3a639",
        "to": "0x95f29fee11c5c55d26cccf1db6772de953b37b82",
        "gas": "0x12863",
        "value": "0x0",
        "input": "0x4e847fc70000000000000000000000008708bff029bdb6d24dc1e6d45e27419d12d66a7c0000000000000000000000002ccaffaef006b54e52698adc016ade025d192750",
        "nonce": "0x55",
        "chainId": "0xaa36a7"
      },
      "additionalContracts": [],
      "isFixedGasLimit": false
    }
  ],
  "receipts": [
    {
      "status": "0x1",
      "cumulativeGasUsed": "0xa82c35",
      "logs": [
        {
          "address": "0x95f29fee11c5c55d26cccf1db6772de953b37b82",
          "topics": [
            "0xc54c3051ff16e63bb9203214432372aca006c589e3653619b577a3265675b716",
            "0x0000000000000000000000008708bff029bdb6d24dc1e6d45e27419d12d66a7c",
            "0x0000000000000000000000000000000000000000000000000000000000000000",
            "0x000000000000000000000000305bda6fd153d82b812d986b28dcb07d06a3a639"
          ],
          "data": "0x",
          "blockHash": "0xcc5cb0afc31b9bda79e76f44d6e16d1c6781c3d12a01039359b29a0c54d9cc41",
          "blockNumber": "0x764545",
          "transactionHash": "0xf0f45bd0c8363fdb028b1762dffa61275f1eee26c383c83cdf86fd90d09418c0",
          "transactionIndex": "0x66",
          "logIndex": "0xaa",
          "removed": false
        },
        {
          "address": "0x62e731218d0d47305aba2be3751e7ee9e5520790",
          "topics": [
            "0x09590fb70af4b833346363965e043a9339e8c7d378b8a2b903c75c277faec4f9",
            "0x0000000000000000000000008708bff029bdb6d24dc1e6d45e27419d12d66a7c",
            "0x000000000000000000000000305bda6fd153d82b812d986b28dcb07d06a3a639"
          ],
          "data": "0x",
          "blockHash": "0xcc5cb0afc31b9bda79e76f44d6e16d1c6781c3d12a01039359b29a0c54d9cc41",
          "blockNumber": "0x764545",
          "transactionHash": "0xf0f45bd0c8363fdb028b1762dffa61275f1eee26c383c83cdf86fd90d09418c0",
          "transactionIndex": "0x66",
          "logIndex": "0xab",
          "removed": false
        }
      ],
      "logsBloom": "0x00000000000000000000000000000000002000000000000000200000000000000000000000000000008000004400000000000000000000000000000408000000000000000040000000000040000000000000000000000002000000000000000000000000020000000000000001000800000000000000000000000000000000000000000000000000000000000000000000000000000000000000000000000000000000000000000000000000000000000000000000000008000000000000000000000000400000000000000000000000000000000000000400000000000120000000000000000000000001000000000000000000000000000800020000000000",
      "type": "0x2",
      "transactionHash": "0xf0f45bd0c8363fdb028b1762dffa61275f1eee26c383c83cdf86fd90d09418c0",
      "transactionIndex": "0x66",
      "blockHash": "0xcc5cb0afc31b9bda79e76f44d6e16d1c6781c3d12a01039359b29a0c54d9cc41",
      "blockNumber": "0x764545",
      "gasUsed": "0x1af82",
      "effectiveGasPrice": "0x3cf88907",
      "from": "0x305bda6fd153d82b812d986b28dcb07d06a3a639",
      "to": "0x62e731218d0d47305aba2be3751e7ee9e5520790",
      "contractAddress": null
    },
    {
      "status": "0x1",
      "cumulativeGasUsed": "0xa8df66",
      "logs": [
        {
          "address": "0x95f29fee11c5c55d26cccf1db6772de953b37b82",
          "topics": [
            "0x399b55200f7f639a63d76efe3dcfa9156ce367058d6b673041b84a628885f5a7",
            "0x0000000000000000000000008708bff029bdb6d24dc1e6d45e27419d12d66a7c",
            "0x000000000000000000000000305bda6fd153d82b812d986b28dcb07d06a3a639"
          ],
          "data": "0x",
          "blockHash": "0xcc5cb0afc31b9bda79e76f44d6e16d1c6781c3d12a01039359b29a0c54d9cc41",
          "blockNumber": "0x764545",
          "transactionHash": "0xf86ed6ae5f59366ead12c8954065dd033fa49e8f6ab2f73942c0f4d1dee3fc0a",
          "transactionIndex": "0x67",
          "logIndex": "0xac",
          "removed": false
        }
      ],
      "logsBloom": "0x00000000000000000000000000000000000000000000001000200000000000000000000000000000000000004400000000000000000000000000000008000000000000000000000000000000000000000000000000000000000000000000000000000000000000000000000001000000000000000000000000000000000000000000000000000000000000000000000000000000000000000000000000000000000000000000000000000000000000000000000000000008000000000000000000000000000004000000000000000000000000000000000400000000000000000000000000000000000001000000000000000000000400000000020000000000",
      "type": "0x2",
      "transactionHash": "0xf86ed6ae5f59366ead12c8954065dd033fa49e8f6ab2f73942c0f4d1dee3fc0a",
      "transactionIndex": "0x67",
      "blockHash": "0xcc5cb0afc31b9bda79e76f44d6e16d1c6781c3d12a01039359b29a0c54d9cc41",
      "blockNumber": "0x764545",
      "gasUsed": "0xb331",
      "effectiveGasPrice": "0x3cf88907",
      "from": "0x305bda6fd153d82b812d986b28dcb07d06a3a639",
      "to": "0x95f29fee11c5c55d26cccf1db6772de953b37b82",
      "contractAddress": null
    },
    {
      "status": "0x1",
      "cumulativeGasUsed": "0xa9aa0f",
      "logs": [
        {
          "address": "0x95f29fee11c5c55d26cccf1db6772de953b37b82",
          "topics": [
            "0x754449ec3aff3bd528bfce43ae9319c4a381b67fcd1d20097b3b24dacaecc35d",
            "0x0000000000000000000000008708bff029bdb6d24dc1e6d45e27419d12d66a7c",
            "0x0000000000000000000000000000000000000000000000000000000000000000",
            "0x0000000000000000000000002ccaffaef006b54e52698adc016ade025d192750"
          ],
          "data": "0x",
          "blockHash": "0xcc5cb0afc31b9bda79e76f44d6e16d1c6781c3d12a01039359b29a0c54d9cc41",
          "blockNumber": "0x764545",
          "transactionHash": "0x7ba20e3c5fe3a84d31c70b0812d60f0739d21e49070897d71fd5c04c77a4ef71",
          "transactionIndex": "0x68",
          "logIndex": "0xad",
          "removed": false
        }
      ],
      "logsBloom": "0x00000000000400000000000000000000000000000000000000200000000000000000000000000000000000004400000000000000000000000040000000000000000000000000000000000000000000000000000001000000000000000000000000000000020000000000000000000800000000000000000000000000000000000000000000000000000000000000000000000000000000000000000000000000000000004000000000000000000000000000000000000008000000000000000020000000000000000000000000000000000000000000000000000000000020000000000000000000000001000000000000000000000000000000020001000000",
      "type": "0x2",
      "transactionHash": "0x7ba20e3c5fe3a84d31c70b0812d60f0739d21e49070897d71fd5c04c77a4ef71",
      "transactionIndex": "0x68",
      "blockHash": "0xcc5cb0afc31b9bda79e76f44d6e16d1c6781c3d12a01039359b29a0c54d9cc41",
      "blockNumber": "0x764545",
      "gasUsed": "0xcaa9",
      "effectiveGasPrice": "0x3cf88907",
      "from": "0x305bda6fd153d82b812d986b28dcb07d06a3a639",
      "to": "0x95f29fee11c5c55d26cccf1db6772de953b37b82",
      "contractAddress": null
    }
  ],
  "libraries": [],
  "pending": [],
  "returns": {},
  "timestamp": 1740094369,
  "chain": 11155111,
  "commit": "6d9d450"
}