{
  "transactions": [
    {
      "hash": "0x43e04da6d2f21525a3382372bc08391f9396481e74fce29e591bdbca5766e480",
      "transactionType": "CALL",
      "contractName": null,
      "contractAddress": "0x8708bff029bdb6d24dc1e6d45e27419d12d66a7c",
      "function": "grantMintAndBurnRole(address)",
      "arguments": [
        "0x2cCAFFAef006b54E52698ADC016AdE025D192750"
      ],
      "transaction": {
        "from": "0x305bda6fd153d82b812d986b28dcb07d06a3a639",
        "to": "0x8708bff029bdb6d24dc1e6d45e27419d12d66a7c",
        "gas": "0x10590",
        "value": "0x0",
        "input": "0x7cfb3d710000000000000000000000002ccaffaef006b54e52698adc016ade025d192750",
        "nonce": "0x52",
        "chainId": "0xaa36a7"
      },
      "additionalContracts": [],
      "isFixedGasLimit": false
    }
  ],
  "receipts": [
    {
      "status": "0x1",
      "cumulativeGasUsed": "0xa3d737",
      "logs": [
        {
          "address": "0x8708bff029bdb6d24dc1e6d45e27419d12d66a7c",
          "topics": [
            "0x2f8788117e7eff1d82e926ec794901d17c78024a50270940304540a733656f0d",
            "0x7429555b03aa5cf08cc5fc0890c97db295c9cec5e6bb1544bcd7fd1430dae3e2",
            "0x0000000000000000000000002ccaffaef006b54e52698adc016ade025d192750",
            "0x000000000000000000000000305bda6fd153d82b812d986b28dcb07d06a3a639"
          ],
          "data": "0x",
          "blockHash": "0x0621414ef5b947ff5b91f3a6cc67ba85e58f778ce9729318d5339481b411a6c9",
          "blockNumber": "0x764541",
          "transactionHash": "0x43e04da6d2f21525a3382372bc08391f9396481e74fce29e591bdbca5766e480",
          "transactionIndex": "0x77",
          "logIndex": "0xb7",
          "removed": false
        }
      ],
      "logsBloom": "0x00000004000000000000000000000000000000000000000000000000000000000000000000000000000000000000000800000000000000000040000008010000000000000000000000000000000000000000000000000000000000000000000000000000000000000000000001000000000000000000000000000000000000000000000000000000000000000000000000000000000000000000000000000000000000004000000000000000000000000000000000000004001000000000000020000000000000000000000000020000000000000000000500000000000000020000000000000000000000000000000000000000000000000000000000000000",
      "type": "0x2",
      "transactionHash": "0x43e04da6d2f21525a3382372bc08391f9396481e74fce29e591bdbca5766e480",
      "transactionIndex": "0x77",
      "blockHash": "0x0621414ef5b947ff5b91f3a6cc67ba85e58f778ce9729318d5339481b411a6c9",
      "blockNumber": "0x764541",
      "gasUsed": "0xbd5f",
      "effectiveGasPrice": "0x3e1118a7",
      "from": "0x305bda6fd153d82b812d986b28dcb07d06a3a639",
      "to": "0x8708bff029bdb6d24dc1e6d45e27419d12d66a7c",
      "contractAddress": null
    }
  ],
  "libraries": [],
  "pending": [],
  "returns": {},
  "timestamp": 1740094321,
  "chain": 11155111,
  "commit": "6d9d450"
}